{
  "contractName": "Splitter",
  "abi": [
    {
      "constant": true,
      "inputs": [
        {
          "name": "",
          "type": "address"
        }
      ],
      "name": "balances",
      "outputs": [
        {
          "name": "",
          "type": "uint256"
        }
      ],
      "payable": false,
      "stateMutability": "view",
      "type": "function"
    },
    {
      "constant": false,
      "inputs": [],
      "name": "pauseContract",
      "outputs": [],
      "payable": false,
      "stateMutability": "nonpayable",
      "type": "function"
    },
    {
      "constant": true,
      "inputs": [],
      "name": "getStatus",
      "outputs": [
        {
          "name": "",
          "type": "bool"
        }
      ],
      "payable": false,
      "stateMutability": "view",
      "type": "function"
    },
    {
      "constant": true,
      "inputs": [],
      "name": "getOwner",
      "outputs": [
        {
          "name": "",
          "type": "address"
        }
      ],
      "payable": false,
      "stateMutability": "view",
      "type": "function"
    },
    {
      "constant": false,
      "inputs": [
        {
          "name": "newOwner",
          "type": "address"
        }
      ],
      "name": "changeOwner",
      "outputs": [],
      "payable": false,
      "stateMutability": "nonpayable",
      "type": "function"
    },
    {
      "constant": false,
      "inputs": [],
      "name": "resumeContract",
      "outputs": [],
      "payable": false,
      "stateMutability": "nonpayable",
      "type": "function"
    },
    {
      "payable": false,
      "stateMutability": "nonpayable",
      "type": "fallback"
    },
    {
      "anonymous": false,
      "inputs": [
        {
          "indexed": true,
          "name": "from",
          "type": "address"
        },
        {
          "indexed": true,
          "name": "toUser1",
          "type": "address"
        },
        {
          "indexed": true,
          "name": "toUser2",
          "type": "address"
        },
        {
          "indexed": false,
          "name": "preSplitAmount",
          "type": "uint256"
        }
      ],
      "name": "LogEthSplitted",
      "type": "event"
    },
    {
      "anonymous": false,
      "inputs": [
        {
          "indexed": true,
          "name": "to",
          "type": "address"
        },
        {
          "indexed": false,
          "name": "amount",
          "type": "uint256"
        }
      ],
      "name": "LogWithdrawal",
      "type": "event"
    },
    {
      "anonymous": false,
      "inputs": [
        {
          "indexed": true,
          "name": "performedBy",
          "type": "address"
        }
      ],
      "name": "LogContractPaused",
      "type": "event"
    },
    {
      "anonymous": false,
      "inputs": [
        {
          "indexed": true,
          "name": "performedBy",
          "type": "address"
        }
      ],
      "name": "LogContractResumed",
      "type": "event"
    },
    {
      "anonymous": false,
      "inputs": [
        {
          "indexed": true,
          "name": "oldOwner",
          "type": "address"
        },
        {
          "indexed": true,
          "name": "newOwner",
          "type": "address"
        }
      ],
      "name": "LogOwnerChanged",
      "type": "event"
    },
    {
      "constant": false,
      "inputs": [],
      "name": "withdraw",
      "outputs": [],
      "payable": false,
      "stateMutability": "nonpayable",
      "type": "function"
    },
    {
      "constant": false,
      "inputs": [
        {
          "name": "toUser1",
          "type": "address"
        },
        {
          "name": "toUser2",
          "type": "address"
        }
      ],
      "name": "splitEth",
      "outputs": [],
      "payable": true,
      "stateMutability": "payable",
      "type": "function"
    }
  ],
  "bytecode": "0x6080604052336000806101000a81548173ffffffffffffffffffffffffffffffffffffffff021916908373ffffffffffffffffffffffffffffffffffffffff1602179055506001600060146101000a81548160ff021916908315150217905550610f548061006e6000396000f3fe60806040526004361061008e576000357c0100000000000000000000000000000000000000000000000000000000900463ffffffff16806327e235e3146101095780633ccfd60b1461016e578063439766ce146101855780634e69d5601461019c578063893d20e8146101cb5780638b6502a114610222578063a6f9dae114610286578063c4bc5da5146102d7575b34801561009a57600080fd5b506040517f08c379a00000000000000000000000000000000000000000000000000000000081526004018080602001828103825260148152602001807f506c65617365207573652066756e6374696f6e7300000000000000000000000081525060200191505060405180910390fd5b34801561011557600080fd5b506101586004803603602081101561012c57600080fd5b81019080803573ffffffffffffffffffffffffffffffffffffffff1690602001909291905050506102ee565b6040518082815260200191505060405180910390f35b34801561017a57600080fd5b50610183610306565b005b34801561019157600080fd5b5061019a61049f565b005b3480156101a857600080fd5b506101b1610646565b604051808215151515815260200191505060405180910390f35b3480156101d757600080fd5b506101e061065c565b604051808273ffffffffffffffffffffffffffffffffffffffff1673ffffffffffffffffffffffffffffffffffffffff16815260200191505060405180910390f35b6102846004803603604081101561023857600080fd5b81019080803573ffffffffffffffffffffffffffffffffffffffff169060200190929190803573ffffffffffffffffffffffffffffffffffffffff169060200190929190505050610685565b005b34801561029257600080fd5b506102d5600480360360208110156102a957600080fd5b81019080803573ffffffffffffffffffffffffffffffffffffffff169060200190929190505050610b58565b005b3480156102e357600080fd5b506102ec610cf5565b005b60016020528060005260406000206000915090505481565b6000600160003373ffffffffffffffffffffffffffffffffffffffff1673ffffffffffffffffffffffffffffffffffffffff1681526020019081526020016000205490506000811115156103c2576040517f08c379a00000000000000000000000000000000000000000000000000000000081526004018080602001828103825260148152602001807f4e6f2062616c616e636520617661696c61626c6500000000000000000000000081525060200191505060405180910390fd5b6000600160003373ffffffffffffffffffffffffffffffffffffffff1673ffffffffffffffffffffffffffffffffffffffff168152602001908152602001600020819055503373ffffffffffffffffffffffffffffffffffffffff167fb4214c8c54fc7442f36d3682f59aebaf09358a4431835b30efb29d52cf9e1e91826040518082815260200191505060405180910390a23373ffffffffffffffffffffffffffffffffffffffff166108fc829081150290604051600060405180830381858888f1935050505015801561049b573d6000803e3d6000fd5b5050565b6000809054906101000a900473ffffffffffffffffffffffffffffffffffffffff1673ffffffffffffffffffffffffffffffffffffffff163373ffffffffffffffffffffffffffffffffffffffff16141515610563576040517f08c379a00000000000000000000000000000000000000000000000000000000081526004018080602001828103825260188152602001807f4f6e6c792065786563757461626c65206279206f776e6572000000000000000081525060200191505060405180910390fd5b600060149054906101000a900460ff1615156105e7576040517f08c379a000000000000000000000000000000000000000000000000000000000815260040180806020018281038252601a8152602001807f436f6e747261637420697320616c72656164792070617573656400000000000081525060200191505060405180910390fd5b60008060146101000a81548160ff0219169083151502179055503373ffffffffffffffffffffffffffffffffffffffff167f7ef3ddd9f478d8ce6c18608562d83b62708061b721490ad6350f850bbd8d4d5b60405160405180910390a2565b60008060149054906101000a900460ff16905090565b60008060009054906101000a900473ffffffffffffffffffffffffffffffffffffffff16905090565b600060149054906101000a900460ff161515610709576040517f08c379a000000000000000000000000000000000000000000000000000000000815260040180806020018281038252601c8152602001807f436f6e74726163742069732063757272656e746c79207061757365640000000081525060200191505060405180910390fd5b600073ffffffffffffffffffffffffffffffffffffffff168273ffffffffffffffffffffffffffffffffffffffff16141515156107d4576040517f08c379a00000000000000000000000000000000000000000000000000000000081526004018080602001828103825260248152602001807f41646472657373206f662027746f5573657231272063616e6e6f74206265206581526020017f6d7074790000000000000000000000000000000000000000000000000000000081525060400191505060405180910390fd5b600073ffffffffffffffffffffffffffffffffffffffff168173ffffffffffffffffffffffffffffffffffffffff161415151561089f576040517f08c379a00000000000000000000000000000000000000000000000000000000081526004018080602001828103825260248152602001807f41646472657373206f662027746f5573657232272063616e6e6f74206265206581526020017f6d7074790000000000000000000000000000000000000000000000000000000081525060400191505060405180910390fd5b60003414151515610918576040517f08c379a00000000000000000000000000000000000000000000000000000000081526004018080602001828103825260198152602001807f4d6573736167652076616c75652063616e6e6f7420626520300000000000000081525060200191505060405180910390fd5b600060023481151561092657fe5b0614151561099c576040517f08c379a00000000000000000000000000000000000000000000000000000000081526004018080602001828103825260198152602001807f4d65736167652076616c7565206d757374206265206576656e0000000000000081525060200191505060405180910390fd5b60006002348115156109aa57fe5b0490506109ff81600160008673ffffffffffffffffffffffffffffffffffffffff1673ffffffffffffffffffffffffffffffffffffffff16815260200190815260200160002054610e9e90919063ffffffff16565b600160008573ffffffffffffffffffffffffffffffffffffffff1673ffffffffffffffffffffffffffffffffffffffff16815260200190815260200160002081905550610a9481600160008573ffffffffffffffffffffffffffffffffffffffff1673ffffffffffffffffffffffffffffffffffffffff16815260200190815260200160002054610e9e90919063ffffffff16565b600160008473ffffffffffffffffffffffffffffffffffffffff1673ffffffffffffffffffffffffffffffffffffffff168152602001908152602001600020819055508173ffffffffffffffffffffffffffffffffffffffff168373ffffffffffffffffffffffffffffffffffffffff163373ffffffffffffffffffffffffffffffffffffffff167f4e6072fa79ea0ccb63999b8a9040293e65eef491c0916b795e447eec8f30f216346040518082815260200191505060405180910390a4505050565b6000809054906101000a900473ffffffffffffffffffffffffffffffffffffffff1673ffffffffffffffffffffffffffffffffffffffff163373ffffffffffffffffffffffffffffffffffffffff16141515610c1c576040517f08c379a00000000000000000000000000000000000000000000000000000000081526004018080602001828103825260188152602001807f4f6e6c792065786563757461626c65206279206f776e6572000000000000000081525060200191505060405180910390fd5b600073ffffffffffffffffffffffffffffffffffffffff168173ffffffffffffffffffffffffffffffffffffffff1614151515610c5857600080fd5b806000806101000a81548173ffffffffffffffffffffffffffffffffffffffff021916908373ffffffffffffffffffffffffffffffffffffffff1602179055508073ffffffffffffffffffffffffffffffffffffffff163373ffffffffffffffffffffffffffffffffffffffff167ffcf23a92150d56e85e3a3d33b357493246e55783095eb6a733eb8439ffc752c860405160405180910390a350565b6000809054906101000a900473ffffffffffffffffffffffffffffffffffffffff1673ffffffffffffffffffffffffffffffffffffffff163373ffffffffffffffffffffffffffffffffffffffff16141515610db9576040517f08c379a00000000000000000000000000000000000000000000000000000000081526004018080602001828103825260188152602001807f4f6e6c792065786563757461626c65206279206f776e6572000000000000000081525060200191505060405180910390fd5b600060149054906101000a900460ff16151515610e3e576040517f08c379a000000000000000000000000000000000000000000000000000000000815260040180806020018281038252601a8152602001807f436f6e747261637420697320616c72656164792061637469766500000000000081525060200191505060405180910390fd5b6001600060146101000a81548160ff0219169083151502179055503373ffffffffffffffffffffffffffffffffffffffff167ff772744d65604cbdd938ab80c114b946145893718b4f58fc0fc6453aa8d4258f60405160405180910390a2565b6000808284019050838110151515610f1e576040517f08c379a000000000000000000000000000000000000000000000000000000000815260040180806020018281038252601b8152602001807f536166654d6174683a206164646974696f6e206f766572666c6f77000000000081525060200191505060405180910390fd5b809150509291505056fea165627a7a72305820f3accf8494061acac94402ca41dabf8a28d6cedd58e64643220cb03941e3e9680029",
  "source": "pragma solidity ^0.5.0;\n\nimport {Toggled} from \"./Toggled.sol\";  // Toggled is Owned\nimport {SafeMath} from \"./SafeMath.sol\";\n\ncontract Splitter is Toggled {\n\n    using SafeMath for uint256;\n\n    mapping (address => uint) public balances;\n\n    event LogEthSplitted(\n        address indexed from,\n        address indexed toUser1,\n        address indexed toUser2,\n        uint preSplitAmount\n    );\n\n    event LogWithdrawal(\n        address indexed to,\n        uint amount\n    );\n\n    function withdraw() public {\n        uint amount = balances[msg.sender];\n        require(amount > 0, \"No balance available\");\n        balances[msg.sender] = 0;\n        emit LogWithdrawal(msg.sender, amount);\n        msg.sender.transfer(amount);\n    }\n\n    function splitEth(address toUser1, address toUser2) public payable isActive {\n        require(toUser1 != address(0), \"Address of 'toUser1' cannot be empty\");\n        require(toUser2 != address(0), \"Address of 'toUser2' cannot be empty\");\n        require(msg.value != 0, \"Message value cannot be 0\");\n        require((msg.value % 2) == 0, \"Mesage value must be even\");\n        uint amount = msg.value / 2;\n        balances[toUser1] = balances[toUser1].add(amount);\n        balances[toUser2] = balances[toUser2].add(amount);\n        emit LogEthSplitted(msg.sender, toUser1, toUser2, msg.value);\n    }\n\n    function() external {\n        revert(\"Please use functions\");\n    }\n}",
  "sourcePath": "/home/ku/dev/learn/b9lab/eth-splitter/contracts/Splitter.sol",
  "compiler": {
    "name": "solc",
    "version": "0.5.0+commit.1d4f565a.Emscripten.clang"
  },
  "schemaVersion": "3.0.5",
  "updatedAt": "2019-05-16T14:50:16.646Z",
  "devdoc": {
    "methods": {}
  },
  "userdoc": {
    "methods": {}
  }
}